{"abi":[{"type":"constructor","inputs":[{"name":"limitOrderProtocol","type":"address","internalType":"address"},{"name":"feeToken","type":"address","internalType":"contract IERC20"},{"name":"accessToken","type":"address","internalType":"contract IERC20"},{"name":"owner","type":"address","internalType":"address"},{"name":"rescueDelaySrc","type":"uint32","internalType":"uint32"},{"name":"rescueDelayDst","type":"uint32","internalType":"uint32"}],"stateMutability":"nonpayable"},{"type":"function","name":"ESCROW_DST_IMPLEMENTATION","inputs":[],"outputs":[{"name":"","type":"address","internalType":"address"}],"stateMutability":"view"},{"type":"function","name":"ESCROW_SRC_IMPLEMENTATION","inputs":[],"outputs":[{"name":"","type":"address","internalType":"address"}],"stateMutability":"view"},{"type":"function","name":"FEE_BANK","inputs":[],"outputs":[{"name":"","type":"address","internalType":"contract IFeeBank"}],"stateMutability":"view"},{"type":"function","name":"addressOfEscrowDst","inputs":[{"name":"immutables","type":"tuple","internalType":"struct IBaseEscrow.Immutables","components":[{"name":"orderHash","type":"bytes32","internalType":"bytes32"},{"name":"hashlock","type":"bytes32","internalType":"bytes32"},{"name":"maker","type":"uint256","internalType":"Address"},{"name":"taker","type":"uint256","internalType":"Address"},{"name":"token","type":"uint256","internalType":"Address"},{"name":"amount","type":"uint256","internalType":"uint256"},{"name":"safetyDeposit","type":"uint256","internalType":"uint256"},{"name":"timelocks","type":"uint256","internalType":"Timelocks"}]}],"outputs":[{"name":"","type":"address","internalType":"address"}],"stateMutability":"view"},{"type":"function","name":"addressOfEscrowSrc","inputs":[{"name":"immutables","type":"tuple","internalType":"struct IBaseEscrow.Immutables","components":[{"name":"orderHash","type":"bytes32","internalType":"bytes32"},{"name":"hashlock","type":"bytes32","internalType":"bytes32"},{"name":"maker","type":"uint256","internalType":"Address"},{"name":"taker","type":"uint256","internalType":"Address"},{"name":"token","type":"uint256","internalType":"Address"},{"name":"amount","type":"uint256","internalType":"uint256"},{"name":"safetyDeposit","type":"uint256","internalType":"uint256"},{"name":"timelocks","type":"uint256","internalType":"Timelocks"}]}],"outputs":[{"name":"","type":"address","internalType":"address"}],"stateMutability":"view"},{"type":"function","name":"availableCredit","inputs":[{"name":"account","type":"address","internalType":"address"}],"outputs":[{"name":"","type":"uint256","internalType":"uint256"}],"stateMutability":"view"},{"type":"function","name":"createDstEscrow","inputs":[{"name":"dstImmutables","type":"tuple","internalType":"struct IBaseEscrow.Immutables","components":[{"name":"orderHash","type":"bytes32","internalType":"bytes32"},{"name":"hashlock","type":"bytes32","internalType":"bytes32"},{"name":"maker","type":"uint256","internalType":"Address"},{"name":"taker","type":"uint256","internalType":"Address"},{"name":"token","type":"uint256","internalType":"Address"},{"name":"amount","type":"uint256","internalType":"uint256"},{"name":"safetyDeposit","type":"uint256","internalType":"uint256"},{"name":"timelocks","type":"uint256","internalType":"Timelocks"}]},{"name":"srcCancellationTimestamp","type":"uint256","internalType":"uint256"}],"outputs":[],"stateMutability":"payable"},{"type":"function","name":"decreaseAvailableCredit","inputs":[{"name":"account","type":"address","internalType":"address"},{"name":"amount","type":"uint256","internalType":"uint256"}],"outputs":[{"name":"allowance","type":"uint256","internalType":"uint256"}],"stateMutability":"nonpayable"},{"type":"function","name":"getMakingAmount","inputs":[{"name":"order","type":"tuple","internalType":"struct IOrderMixin.Order","components":[{"name":"salt","type":"uint256","internalType":"uint256"},{"name":"maker","type":"uint256","internalType":"Address"},{"name":"receiver","type":"uint256","internalType":"Address"},{"name":"makerAsset","type":"uint256","internalType":"Address"},{"name":"takerAsset","type":"uint256","internalType":"Address"},{"name":"makingAmount","type":"uint256","internalType":"uint256"},{"name":"takingAmount","type":"uint256","internalType":"uint256"},{"name":"makerTraits","type":"uint256","internalType":"MakerTraits"}]},{"name":"","type":"bytes","internalType":"bytes"},{"name":"","type":"bytes32","internalType":"bytes32"},{"name":"","type":"address","internalType":"address"},{"name":"takingAmount","type":"uint256","internalType":"uint256"},{"name":"","type":"uint256","internalType":"uint256"},{"name":"extraData","type":"bytes","internalType":"bytes"}],"outputs":[{"name":"","type":"uint256","internalType":"uint256"}],"stateMutability":"view"},{"type":"function","name":"getTakingAmount","inputs":[{"name":"order","type":"tuple","internalType":"struct IOrderMixin.Order","components":[{"name":"salt","type":"uint256","internalType":"uint256"},{"name":"maker","type":"uint256","internalType":"Address"},{"name":"receiver","type":"uint256","internalType":"Address"},{"name":"makerAsset","type":"uint256","internalType":"Address"},{"name":"takerAsset","type":"uint256","internalType":"Address"},{"name":"makingAmount","type":"uint256","internalType":"uint256"},{"name":"takingAmount","type":"uint256","internalType":"uint256"},{"name":"makerTraits","type":"uint256","internalType":"MakerTraits"}]},{"name":"","type":"bytes","internalType":"bytes"},{"name":"","type":"bytes32","internalType":"bytes32"},{"name":"","type":"address","internalType":"address"},{"name":"makingAmount","type":"uint256","internalType":"uint256"},{"name":"","type":"uint256","internalType":"uint256"},{"name":"extraData","type":"bytes","internalType":"bytes"}],"outputs":[{"name":"","type":"uint256","internalType":"uint256"}],"stateMutability":"view"},{"type":"function","name":"increaseAvailableCredit","inputs":[{"name":"account","type":"address","internalType":"address"},{"name":"amount","type":"uint256","internalType":"uint256"}],"outputs":[{"name":"allowance","type":"uint256","internalType":"uint256"}],"stateMutability":"nonpayable"},{"type":"function","name":"lastValidated","inputs":[{"name":"key","type":"bytes32","internalType":"bytes32"}],"outputs":[{"name":"index","type":"uint256","internalType":"uint256"},{"name":"leaf","type":"bytes32","internalType":"bytes32"}],"stateMutability":"view"},{"type":"function","name":"postInteraction","inputs":[{"name":"order","type":"tuple","internalType":"struct IOrderMixin.Order","components":[{"name":"salt","type":"uint256","internalType":"uint256"},{"name":"maker","type":"uint256","internalType":"Address"},{"name":"receiver","type":"uint256","internalType":"Address"},{"name":"makerAsset","type":"uint256","internalType":"Address"},{"name":"takerAsset","type":"uint256","internalType":"Address"},{"name":"makingAmount","type":"uint256","internalType":"uint256"},{"name":"takingAmount","type":"uint256","internalType":"uint256"},{"name":"makerTraits","type":"uint256","internalType":"MakerTraits"}]},{"name":"extension","type":"bytes","internalType":"bytes"},{"name":"orderHash","type":"bytes32","internalType":"bytes32"},{"name":"taker","type":"address","internalType":"address"},{"name":"makingAmount","type":"uint256","internalType":"uint256"},{"name":"takingAmount","type":"uint256","internalType":"uint256"},{"name":"remainingMakingAmount","type":"uint256","internalType":"uint256"},{"name":"extraData","type":"bytes","internalType":"bytes"}],"outputs":[],"stateMutability":"nonpayable"},{"type":"function","name":"preInteraction","inputs":[{"name":"order","type":"tuple","internalType":"struct IOrderMixin.Order","components":[{"name":"salt","type":"uint256","internalType":"uint256"},{"name":"maker","type":"uint256","internalType":"Address"},{"name":"receiver","type":"uint256","internalType":"Address"},{"name":"makerAsset","type":"uint256","internalType":"Address"},{"name":"takerAsset","type":"uint256","internalType":"Address"},{"name":"makingAmount","type":"uint256","internalType":"uint256"},{"name":"takingAmount","type":"uint256","internalType":"uint256"},{"name":"makerTraits","type":"uint256","internalType":"MakerTraits"}]},{"name":"extension","type":"bytes","internalType":"bytes"},{"name":"orderHash","type":"bytes32","internalType":"bytes32"},{"name":"taker","type":"address","internalType":"address"},{"name":"makingAmount","type":"uint256","internalType":"uint256"},{"name":"takingAmount","type":"uint256","internalType":"uint256"},{"name":"remainingMakingAmount","type":"uint256","internalType":"uint256"},{"name":"extraData","type":"bytes","internalType":"bytes"}],"outputs":[],"stateMutability":"nonpayable"},{"type":"function","name":"takerInteraction","inputs":[{"name":"","type":"tuple","internalType":"struct IOrderMixin.Order","components":[{"name":"salt","type":"uint256","internalType":"uint256"},{"name":"maker","type":"uint256","internalType":"Address"},{"name":"receiver","type":"uint256","internalType":"Address"},{"name":"makerAsset","type":"uint256","internalType":"Address"},{"name":"takerAsset","type":"uint256","internalType":"Address"},{"name":"makingAmount","type":"uint256","internalType":"uint256"},{"name":"takingAmount","type":"uint256","internalType":"uint256"},{"name":"makerTraits","type":"uint256","internalType":"MakerTraits"}]},{"name":"extension","type":"bytes","internalType":"bytes"},{"name":"orderHash","type":"bytes32","internalType":"bytes32"},{"name":"","type":"address","internalType":"address"},{"name":"","type":"uint256","internalType":"uint256"},{"name":"","type":"uint256","internalType":"uint256"},{"name":"","type":"uint256","internalType":"uint256"},{"name":"extraData","type":"bytes","internalType":"bytes"}],"outputs":[],"stateMutability":"nonpayable"},{"type":"event","name":"DstEscrowCreated","inputs":[{"name":"escrow","type":"address","indexed":false,"internalType":"address"},{"name":"hashlock","type":"bytes32","indexed":false,"internalType":"bytes32"},{"name":"taker","type":"uint256","indexed":false,"internalType":"Address"}],"anonymous":false},{"type":"event","name":"SrcEscrowCreated","inputs":[{"name":"srcImmutables","type":"tuple","indexed":false,"internalType":"struct IBaseEscrow.Immutables","components":[{"name":"orderHash","type":"bytes32","internalType":"bytes32"},{"name":"hashlock","type":"bytes32","internalType":"bytes32"},{"name":"maker","type":"uint256","internalType":"Address"},{"name":"taker","type":"uint256","internalType":"Address"},{"name":"token","type":"uint256","internalType":"Address"},{"name":"amount","type":"uint256","internalType":"uint256"},{"name":"safetyDeposit","type":"uint256","internalType":"uint256"},{"name":"timelocks","type":"uint256","internalType":"Timelocks"}]},{"name":"dstImmutablesComplement","type":"tuple","indexed":false,"internalType":"struct IEscrowFactory.DstImmutablesComplement","components":[{"name":"maker","type":"uint256","internalType":"Address"},{"name":"amount","type":"uint256","internalType":"uint256"},{"name":"token","type":"uint256","internalType":"Address"},{"name":"safetyDeposit","type":"uint256","internalType":"uint256"},{"name":"chainId","type":"uint256","internalType":"uint256"}]}],"anonymous":false},{"type":"error","name":"AccessDenied","inputs":[]},{"type":"error","name":"FailedDeployment","inputs":[]},{"type":"error","name":"InsufficientBalance","inputs":[{"name":"balance","type":"uint256","internalType":"uint256"},{"name":"needed","type":"uint256","internalType":"uint256"}]},{"type":"error","name":"InsufficientEscrowBalance","inputs":[]},{"type":"error","name":"InvalidCreationTime","inputs":[]},{"type":"error","name":"InvalidPartialFill","inputs":[]},{"type":"error","name":"InvalidProof","inputs":[]},{"type":"error","name":"InvalidSecretsAmount","inputs":[]},{"type":"error","name":"NotEnoughCredit","inputs":[]},{"type":"error","name":"OnlyFeeBankAccess","inputs":[]},{"type":"error","name":"OnlyLimitOrderProtocol","inputs":[]},{"type":"error","name":"ResolverCanNotFillOrder","inputs":[]},{"type":"error","name":"SafeTransferFromFailed","inputs":[]}],"bytecode":{"object":"0x61018060405234620000ae5762000026620000196200023e565b949390939291926200032c565b62000030620000b4565b613e7a620005df82396080518181816109800152610c57015260a05181818161042b01528181610b0d0152610d12015260c05181612f53015260e05181610dee0152610100518181816105d301526124b00152610120518181816107dd01526115ca01526101405181611708015261016051816112c30152613e7a90f35b620000ba565b60405190565b5f80fd5b601f801991011690565b634e487b7160e01b5f52604160045260245ffd5b90620000e890620000be565b810190811060018060401b038211176200010157604052565b620000c8565b906200011e62000116620000b4565b9283620000dc565b565b5f80fd5b60018060a01b031690565b6200013a9062000124565b90565b62000148816200012f565b036200015057565b5f80fd5b9050519062000163826200013d565b565b62000170906200012f565b90565b6200017e8162000165565b036200018657565b5f80fd5b90505190620001998262000173565b565b63ffffffff1690565b620001af816200019b565b03620001b757565b5f80fd5b90505190620001ca82620001a4565b565b909160c0828403126200023857620001e7835f840162000154565b92620001f781602085016200018a565b926200020782604083016200018a565b92620002356200021b846060850162000154565b936200022b8160808601620001bb565b9360a001620001bb565b90565b62000120565b6200026162008d8080380380620002558162000107565b928339810190620001cc565b909192939495565b62000274906200019b565b9052565b90565b620002946200028e6200029a9262000124565b62000278565b62000124565b90565b620002a8906200027b565b90565b620002b6906200029d565b90565b620002c490620002ab565b9052565b916020620002ed929493620002e560408201965f83019062000269565b0190620002b9565b565b620002f9620000b4565b3d5f823e3d90fd5b6200030c906200029d565b90565b6200031a906200029d565b90565b6200032990516200012f565b90565b620003409295949381928791929362000438565b82906200034c620000b4565b916118b183019083821060018060401b03831117620004325783926200037b926118b1620059858639620002c8565b03905ff080156200042c57620003919062000301565b610100526200039f620000b4565b9161152c83019083821060018060401b0383111762000426578392620003ce9261152c620044598639620002c8565b03905ff080156200042057620003e4906200030f565b61012052620003ff620003f96101006200031d565b62000595565b610140526200041a620004146101206200031d565b62000595565b61016052565b620002ef565b620000c8565b620002ef565b620000c8565b90620004479493929162000449565b565b93916200045793916200045c565b60e052565b906200046a9392916200046c565b565b906200047a9392916200047c565b565b916200048b9293919362000510565b60c052565b6200049b906200029d565b90565b620004a99062000490565b9052565b620004b8906200012f565b9052565b604090620004ea620004f29496959396620004df60608401985f8501906200049e565b6020830190620002b9565b0190620004ad565b565b620004ff906200027b565b90565b6200050d90620004f4565b90565b90916200051d906200057f565b309062000529620000b4565b92611b4a84019184831060018060401b03841117620005795784936200055893611b4a620072368739620004bc565b03905ff0801562000573576200056e9062000502565b60a052565b620002ef565b620000c8565b6200058a906200058c565b565b608052565b5f90565b763d602d80600a3d3981f3363d3d373d3d3d363d7300000090620005b862000591565b506e5af43d82803e903d91602b57fd5bf36020528060115260881c175f5260376009209056fe60806040526004361015610013575b610969565b61001d5f3561010c565b80630986bdd5146101075780631d9671c3146101025780632ce26aeb146100fd5780633ee5ef1f146100f8578063462ebde2146100f35780635886216f146100ee5780637040f173146100e957806385eda2de146100e4578063acf4ce5c146100df578063adf38ba1146100da578063ba551177146100d5578063be58e91c146100d0578063d7ff8a80146100cb578063dea024e4146100c65763fb6bd47e0361000e57610934565b61090a565b61089c565b610867565b6107ff565b61079b565b610765565b61064c565b610617565b61059c565b61053e565b610508565b6104a6565b6103db565b6102cd565b60e01c90565b60405190565b5f80fd5b5f80fd5b5f80fd5b5f80fd5b90816101009103126101375790565b610124565b5f80fd5b5f80fd5b5f80fd5b909182601f830112156101825781359167ffffffffffffffff831161017d57602001926001830284011161017857565b610144565b610140565b61013c565b90565b61019381610187565b0361019a57565b5f80fd5b905035906101ab8261018a565b565b60018060a01b031690565b6101c1906101ad565b90565b6101cd816101b8565b036101d457565b5f80fd5b905035906101e5826101c4565b565b90565b6101f3816101e7565b036101fa57565b5f80fd5b9050359061020b826101ea565b565b91906101e0838203126102c357610226815f8501610128565b9261010081013567ffffffffffffffff81116102be5782610248918301610148565b92909361025982610120850161019e565b926102688361014083016101d8565b926102778161016084016101fe565b926102868261018085016101fe565b92610295836101a083016101fe565b926101c082013567ffffffffffffffff81116102b9576102b59201610148565b9091565b610120565b610120565b61011c565b5f0190565b34610308576102f26102e036600461020d565b989790979691969592959493946109d4565b6102fa610112565b80610304816102c8565b0390f35b610118565b90916101c0828403126103b457610326835f8401610128565b9261010083013567ffffffffffffffff81116103af5781610348918501610148565b92909361035983610120830161019e565b926103688161014084016101d8565b926103778261016085016101fe565b926103868361018083016101fe565b926101a082013567ffffffffffffffff81116103aa576103a69201610148565b9091565b610120565b610120565b61011c565b6103c2906101e7565b9052565b91906103d9905f602085019401906103b9565b565b34610415576104116104006103f136600461030d565b97969096959195949294610a95565b610408610112565b918291826103c6565b0390f35b610118565b5f91031261042457565b61011c565b7f000000000000000000000000000000000000000000000000000000000000000090565b90565b61046461045f610469926101ad565b61044d565b6101ad565b90565b61047590610450565b90565b6104819061046c565b90565b61048d90610478565b9052565b91906104a4905f60208501940190610484565b565b346104d6576104b636600461041a565b6104d26104c1610429565b6104c9610112565b91829182610491565b0390f35b610118565b919060408382031261050357806104f7610500925f86016101d8565b936020016101fe565b90565b61011c565b346105395761053561052461051e3660046104db565b90610c30565b61052c610112565b918291826103c6565b0390f35b610118565b346105795761056361055136600461020d565b98979097969196959295949394610cd2565b61056b610112565b80610575816102c8565b0390f35b610118565b9060208282031261059757610594915f016101d8565b90565b61011c565b346105cc576105c86105b76105b236600461057e565b610ce6565b6105bf610112565b918291826103c6565b0390f35b610118565b7f000000000000000000000000000000000000000000000000000000000000000090565b6105fe906101b8565b9052565b9190610615905f602085019401906105f5565b565b346106475761062736600461041a565b6106436106326105d1565b61063a610112565b91829182610602565b0390f35b610118565b3461067d576106796106686106623660046104db565b90610dc7565b610670610112565b918291826103c6565b0390f35b610118565b9060208282031261069b57610698915f0161019e565b90565b61011c565b6106a990610187565b90565b906106b6906106a0565b5f5260205260405f2090565b5f1c90565b90565b6106d66106db916106c2565b6106c7565b90565b6106e890546106ca565b90565b90565b6106fa6106ff916106c2565b6106eb565b90565b61070c90546106ee565b90565b61071a9060016106ac565b90610732600161072b5f85016106de565b9301610702565b90565b61073e90610187565b9052565b91602061076392949361075c60408201965f8301906103b9565b0190610735565b565b346107965761077d610778366004610682565b61070f565b90610792610789610112565b92839283610742565b0390f35b610118565b346107d6576107c06107ae36600461020d565b98979097969196959295949394611294565b6107c8610112565b806107d2816102c8565b0390f35b610118565b7f000000000000000000000000000000000000000000000000000000000000000090565b3461082f5761080f36600461041a565b61082b61081a6107db565b610822610112565b91829182610602565b0390f35b610118565b90816101009103126108435790565b610124565b90610100828203126108625761085f915f01610834565b90565b61011c565b346108975761089361088261087d366004610848565b6112ac565b61088a610112565b91829182610602565b0390f35b610118565b346108d6576108d26108c16108b236600461030d565b979690969591959492946112eb565b6108c9610112565b918291826103c6565b0390f35b610118565b91906101208382031261090557806108f8610902925f8601610834565b93610100016101fe565b90565b61011c565b61091e6109183660046108db565b90611507565b610926610112565b80610930816102c8565b0390f35b346109645761096061094f61094a366004610848565b6116f1565b610957610112565b91829182610602565b0390f35b610118565b5f80fd5b50505050505050505050336109aa6109a47f00000000000000000000000000000000000000000000000000000000000000006101b8565b916101b8565b036109b157565b6109b9610112565b63692d508360e11b8152806109d0600482016102c8565b0390fd5b906109e699989796959493929161096d565b565b5f90565b356109f6816101ea565b90565b90565b610a10610a0b610a15926109f9565b61044d565b6101e7565b90565b610a24629896806109fc565b90565b634e487b7160e01b5f52601160045260245ffd5b610a4a610a50919392936101e7565b926101e7565b91610a5c8382026101e7565b928184041490151715610a6b57565b610a27565b610a7f610a85919392936101e7565b926101e7565b8201809211610a9057565b610a27565b95505050505091610ab5610afc94610af692610aaf6109e8565b506119e8565b610af0610ae260c0610adb610acc60a088016109ec565b97610ad5610a18565b90610a3b565b95016109ec565b91610aeb610a18565b610a70565b90610a3b565b91611c55565b90565b919033610b3c610b36610b317f0000000000000000000000000000000000000000000000000000000000000000610478565b6101b8565b916101b8565b03610b4d57610b4a92610bfa565b90565b610b55610112565b63a454419960e01b815280610b6c600482016102c8565b0390fd5b610b799061046c565b90565b90610b8690610b70565b5f5260205260405f2090565b90610b9d91016101e7565b90565b5f1b90565b90610bb15f1991610ba0565b9181191691161790565b610bcf610bca610bd4926101e7565b61044d565b6101e7565b90565b90565b90610bef610bea610bf692610bbb565b610bd7565b8254610ba5565b9055565b610c2e919392610c1d9150610c18610c135f8790610b7c565b6106de565b610b92565b92610c2984915f610b7c565b610bda565b565b90610c4291610c3d6109e8565b610aff565b90565b98979695949392919033610c81610c7b7f00000000000000000000000000000000000000000000000000000000000000006101b8565b916101b8565b03610c9157610c8f99610cb4565b565b610c99610112565b63692d508360e11b815280610cb0600482016102c8565b0390fd5b91610cd099979593919896949298909192939495969798612140565b565b90610ce4999897969594939291610c45565b565b610cfc610d0191610cf56109e8565b505f610b7c565b6106de565b90565b919033610d41610d3b610d367f0000000000000000000000000000000000000000000000000000000000000000610478565b6101b8565b916101b8565b03610d5257610d4f92610d9a565b90565b610d5a610112565b63a454419960e01b815280610d71600482016102c8565b0390fd5b610d84610d8a919392936101e7565b926101e7565b8203918211610d9557565b610a27565b610dae610dc49293610dbd9250935f610b7c565b92610db8846106de565b610d75565b8092610bda565b90565b90610dd991610dd46109e8565b610d04565b90565b98979695949392919033610e18610e127f00000000000000000000000000000000000000000000000000000000000000006101b8565b916101b8565b03610e2857610e26996110ee565b565b610e30610112565b634ca8886760e01b815280610e47600482016102c8565b0390fd5b3690565b3690565b35610e5d8161018a565b90565b610e6c610e71916106c2565b610bbb565b90565b60018060f01b031690565b610e93610e8e610e98926101e7565b61044d565b610e74565b90565b90565b610eaa610eaf91610187565b610e9b565b9052565b60101b90565b610ec290610eb3565b90565b610ed1610ed691610e74565b610eb9565b9052565b602081610eed610ef593601e9695610e9e565b018092610ec5565b0190565b601f801991011690565b634e487b7160e01b5f52604160045260245ffd5b90610f2190610ef9565b810190811067ffffffffffffffff821117610f3b57604052565b610f03565b60200190565b5190565b5f80fd5b5f80fd5b5f80fd5b903590600160200381360303821215610f98570180359067ffffffffffffffff8211610f9357602001916020820236038313610f8e57565b610f52565b610f4e565b610f4a565b67ffffffffffffffff1690565b610fbe610fb9610fc3926101e7565b61044d565b610f9d565b90565b60c01b90565b610fd590610fc6565b90565b610fe4610fe991610f9d565b610fcc565b9052565b6008816110006110089360209695610fd8565b018092610e9e565b0190565b90565b61102361101e6110289261100c565b61044d565b6101e7565b90565b9061103e611037610112565b9283610f17565b565b61104a604061102b565b90565b90611057906101e7565b9052565b9061106590610187565b9052565b61107390516101e7565b90565b6110809051610187565b90565b61108c906106c2565b90565b906110a461109f6110ab926106a0565b611083565b8254610ba5565b9055565b906110da602060016110e0946110d25f82016110cc5f8801611069565b90610bda565b019201611076565b9061108f565b565b906110ec916110af565b565b5060a09298506111379650611132955061112d94505f935090611110916125e7565b91909161111b610e4b565b50611124610e4f565b50030101610e53565b610e60565b610e7f565b916111638391611154611148610112565b93849260208401610eda565b60208201810382520382610f17565b61117561116f82610f46565b91610f40565b209161120c6112066112006111fb6111f6611193875f810190610f56565b6111a76111a260208b016109ec565b610faa565b6111dd6111b660408c01610e53565b916111ce6111c2610112565b93849260208401610fed565b60208201810382520382610f17565b6111ef6111e982610f46565b91610f40565b2091612642565b610e60565b610e7f565b92610e74565b91610e74565b036112715761126a61126f92611263611246604061123f61122f602088016109ec565b611239600161100f565b90610a70565b9501610e53565b61125a611251611040565b955f870161104d565b6020850161105b565b60016106ac565b6110e2565b565b611279610112565b6309bde33960e01b815280611290600482016102c8565b0390fd5b906112a6999897969594939291610ddc565b565b5f90565b6112c16112e8916112bb6112a8565b506126b0565b7f0000000000000000000000000000000000000000000000000000000000000000906126d4565b90565b9550505050509161133e60a06113376113136113559761134c9561130d6109e8565b506119e8565b61133161132260c088016109ec565b979161132c610a18565b610a70565b90610a3b565b93016109ec565b611346610a18565b90610a3b565b906001926126f5565b90565b611361816101e7565b0361136857565b5f80fd5b3561137681611358565b90565b90565b61139061138b61139592611379565b61044d565b6101ad565b90565b6113a19061137c565b90565b5f80fd5b905035906113b582611358565b565b6113c0816101e7565b036113c757565b5f80fd5b905035906113d8826113b7565b565b9190610100838203126114825761147b906113f661010061102b565b93611403825f830161019e565b5f860152611414826020830161019e565b602086015261142682604083016113a8565b604086015261143882606083016113a8565b606086015261144a82608083016113a8565b608086015261145c8260a083016101fe565b60a086015261146e8260c083016101fe565b60c086015260e0016113cb565b60e0830152565b6113a4565b6114929036906113da565b90565b61149f90516101e7565b90565b906114ac906101e7565b9052565b6114b990610450565b90565b6114c5906114b0565b90565b6114d190610bbb565b9052565b6040906114fe61150594969593966114f460608401985f8501906105f5565b6020830190610735565b01906114c8565b565b9061151c6115176080840161136c565b6127b6565b61152860c084016109ec565b8161154361153d6115385f611398565b6101b8565b916101b8565b146116d6575b61155c61155634926101e7565b916101e7565b036116b35761156a83611487565b9161158d61158461157d60e08601611495565b429061286d565b60e085016114a2565b6115b66115b06115aa6115a260e08701611495565b60069061294d565b926101e7565b916101e7565b11611690576115ef6115c7836129b3565b347f0000000000000000000000000000000000000000000000000000000000000000916129c4565b918161160b6116056116005f611398565b6101b8565b916101b8565b03611668575b50509061162c606061162560208401610e53565b920161136c565b916116637fc30e111dcc74fddc2c3a4d98ffb97adec4485c0a687946bf5b22c2a99c7ff96d9361165a610112565b938493846114d5565b0390a1565b611674611689926114bc565b903361168360a0869301611069565b92612a0f565b5f80611611565b611698610112565b637a42074b60e11b8152806116af600482016102c8565b0390fd5b6116bb610112565b6334f5151d60e01b8152806116d2600482016102c8565b0390fd5b6116ec906116e660a086016109ec565b90610a70565b611549565b61170661172d916117006112a8565b506126b0565b7f0000000000000000000000000000000000000000000000000000000000000000906126d4565b90565b61174461173f61174992611379565b61044d565b6101e7565b90565b90565b61176361175e6117689261174c565b61044d565b6101e7565b90565b5f80fd5b5f80fd5b9093929384831161179357841161178e576001820201920390565b61176f565b61176b565b5090565b62ffffff60e81b1690565b1b90565b906117b96117c09183611798565b913561179c565b90600381106117ce575b5090565b6117e59062ffffff60e81b906003036008026117a7565b165f6117ca565b60e81c90565b62ffffff1690565b61180e611809611813926117f2565b61044d565b6117f2565b90565b611822611827916117ec565b6117fa565b90565b61183e611839611843926117f2565b61044d565b6101e7565b90565b90565b61185d61185861186292611846565b61044d565b6101e7565b90565b63ffffffff60e01b1690565b9061187f6118869183611798565b9135611865565b9060048110611894575b5090565b6118ac9063ffffffff60e01b906004036008026117a7565b165f611890565b63ffffffff1690565b6118d06118cb6118d5926118b3565b61044d565b6118b3565b90565b6118e46118e99161010c565b6118bc565b90565b6119006118fb611905926118b3565b61044d565b6101e7565b90565b9061191391026101e7565b90565b634e487b7160e01b5f52601260045260245ffd5b61193661193c916101e7565b916101e7565b908115611947570490565b611916565b90565b61196361195e6119689261194c565b61044d565b6101e7565b90565b611977620f424061194f565b90565b90565b61199161198c6119969261197a565b61044d565b6101e7565b90565b90565b6119b06119ab6119b592611999565b61044d565b6101e7565b90565b90565b6119cf6119ca6119d4926119b8565b61044d565b6101e7565b90565b91565b906119e591036101e7565b90565b611b81906119f46109e8565b50611a2f611a2a611a25611a1f84875f90611a19611a13600393611730565b9261174f565b92611773565b906117ab565b611816565b61182a565b611a6a611a65611a60611a5a8588600390611a54611a4e60079361174f565b92611849565b92611773565b90611871565b6118d8565b6118ec565b9080611a7e611a785f611730565b916101e7565b148015611be3575b5f14611bb9575050611a975f611730565b5b92611ad4611acf611aca611ac48585600790611abe611ab8600b93611849565b9261197d565b92611773565b90611871565b6118d8565b6118ec565b91611b79611b73611b2085611b1a611b15611b10611b0a888a600b90611b04611afe600e9361197d565b9261199c565b92611773565b906117ab565b611816565b61182a565b90610b92565b93611b5c611b57611b52611b4c8785600e90611b46611b4060119361199c565b926119bb565b92611773565b906117ab565b611816565b61182a565b9594959390611b6b60116119bb565b908092611773565b906119d7565b939092612b6c565b9081611b95611b8f836101e7565b916101e7565b115f14611ba957611ba5916119da565b5b90565b5050611bb45f611730565b611ba6565b611bde91611bcb611bd0924890611908565b61192a565b611bd861196b565b9061192a565b611a98565b5081611bf7611bf15f611730565b916101e7565b14611a86565b611c0760116119bb565b90565b90565b611c21611c1c611c2692611c0a565b61044d565b6101e7565b90565b611c336012611c0d565b90565b90565b611c4d611c48611c5292611c36565b61044d565b6101e7565b90565b929192611c606109e8565b50611c6c818390611908565b91611c756109e8565b505f19818309838082109103039182611c96611c905f611730565b916101e7565b14611e465785611cae611ca8856101e7565b916101e7565b1115611e1157611e089286611e0e969793611cff93611ccb6109e8565b5009908582119003940393600183611cec5f611ce78791611730565b6119da565b1680809504960493805f03040190611908565b1791611e02611de6611dc2611d9e611d7a611d56611d276003611d22899161174f565b611908565b611d316002611c39565b18611d506002611d4b611d458b8590611908565b91611c39565b6119da565b90611908565b611d746002611d6f611d698a8590611908565b91611c39565b6119da565b90611908565b611d986002611d93611d8d898590611908565b91611c39565b6119da565b90611908565b611dbc6002611db7611db1888590611908565b91611c39565b6119da565b90611908565b611de06002611ddb611dd5878590611908565b91611c39565b6119da565b90611908565b91611dfd611df76002928590611908565b91611c39565b6119da565b90611908565b90611908565b90565b85611e24611e1e5f611730565b916101e7565b145f14611e3957611e33611c29565b5b612d34565b611e41611bfd565b611e34565b50505091611e54919261192a565b90565b90565b611e6e611e69611e7392611e57565b61044d565b6101e7565b90565b611e8060a0611e5a565b90565b5f90565b611e90816101e7565b03611e9757565b5f80fd5b35611ea581611e87565b90565b90565b60ff1690565b611ec5611ec0611eca92611ea8565b61044d565b611eab565b90565b1c90565b611ef090611eea611ee4611ef594611eab565b916101e7565b90611ecd565b6101e7565b90565b611f02604061102b565b90565b90611f3c611f336001611f16611ef8565b94611f2d611f255f83016106de565b5f880161104d565b01610702565b6020840161105b565b565b611f4790611f05565b90565b151590565b611f5890610450565b90565b611f6f611f6a611f74926101ad565b61044d565b6101e7565b90565b90565b611f8e611f89611f9392611f77565b61044d565b611eab565b90565b35611fa0816113b7565b90565b611fae61010061102b565b90565b90611fbb906101e7565b9052565b6fffffffffffffffffffffffffffffffff1690565b611fe8611fe3611fed92611fbf565b61044d565b6101e7565b90565b611ffa60a061102b565b90565b61200690610187565b9052565b61201390610bbb565b9052565b612020906101e7565b9052565b61202d90610bbb565b9052565b9060e0806120bf936120495f8201515f860190611ffd565b61205b60208201516020860190611ffd565b61206d6040820151604086019061200a565b61207f6060820151606086019061200a565b6120916080820151608086019061200a565b6120a360a082015160a0860190612017565b6120b560c082015160c0860190612017565b0151910190612024565b565b90608080612119936120d95f8201515f86019061200a565b6120eb60208201516020860190612017565b6120fd6040820151604086019061200a565b61210f60608201516060860190612017565b0151910190612017565b565b9161010061213e9294936121376101a08201965f830190612031565b01906120c1565b565b9891612194918a949896999387898c61216b61215d898690611798565b612165611e76565b90610d75565b9894958d9061218c6121868d949596978d8d915f9192611773565b906119d7565b989097612dc3565b61219c610e4b565b5001936121a7611e83565b506121bc6121b760e08901611e9b565b6130a0565b5f146125ce576121e86121d86121d35f8801610e53565b610e60565b6121e260f0611eb1565b90611ed1565b92836121fd6121f76002611c39565b916101e7565b106125ab576122a56122ab9188956122776122728a61225861223161222c6122275f8c9501610e53565b610e60565b610e7f565b9161224961223d610112565b93849260208401610eda565b60208201810382520382610f17565b61226a61226482610f46565b91610f40565b2060016106ac565b611f3e565b908b61229f5f61229760a061228e60208801611076565b9c9794016109ec565b939401611069565b936130f4565b15611f4a565b612588575b9190866020016122bf9061136c565b906122c990611f4f565b6122d290611f5b565b876060016122df9061136c565b8791876060016122ee906109ec565b60806122f990611f7a565b61230291611ed1565b938860800161231090611f96565b4261231a9161286d565b95612323611fa3565b975f8901906123319161105b565b602088019061233f9161105b565b604087019061234d91611fb1565b606086019061235b91611fb1565b608085019061236991611fb1565b60a08401906123779161104d565b60c08301906123859161104d565b60e0820190612393916114a2565b91846040016123a19061136c565b6123aa906127b6565b5f6123b490611398565b6123bd906101b8565b906123c7906101b8565b145f149061246291612573576124596123e26020880161136c565b935b916124506123f46040830161136c565b6124476124296020612408606087016109ec565b6124216fffffffffffffffffffffffffffffffff611fd4565b1695016109ec565b9561243e612435611ff0565b995f8b01611fb1565b6020890161104d565b60408701611fb1565b6060850161104d565b6080830161104d565b81907f0e534c62f0afd2fa0f0fa71198e8aa2d549f24daf2bb47de0d5486c7ce9288ca9161249a612491610112565b9283928361211b565b0390a16124db6124a9826129b3565b5f906124d57f000000000000000000000000000000000000000000000000000000000000000092611730565b906129c4565b906124fb6124f56124f060c085319401611069565b6101e7565b916101e7565b10928315612530575b50505061250d57565b612515610112565b6334f5151d60e01b81528061252c600482016102c8565b0390fd5b61256a9293506125649161255961255461254f606061255e950161136c565b6127b6565b6114bc565b61321e565b926101e7565b916101e7565b105f8080612504565b6124596125826040880161136c565b936123e4565b612590610112565b633aace85d60e21b8152806125a7600482016102c8565b0390fd5b6125b3610112565b6310d629d360e01b8152806125ca600482016102c8565b0390fd5b91506125db5f8501610e53565b916122b0565b36905f90565b90612600916125f46125e1565b90505090600791613285565b91909190565b600161261291016101e7565b90565b5090565b634e487b7160e01b5f52603260045260245ffd5b919081101561263d576020020190565b612619565b929161264c611e83565b506126565f611730565b905b8161267561266f61266a888790612615565b6101e7565b916101e7565b10156126a85761269c6126a2916126966126918887879161262d565b610e53565b90613314565b91612606565b90612658565b929350505090565b610100906126bc611e83565b50816040519182372090565b6126d19061046c565b90565b906126f2916126e16112a8565b50906126ec306126c8565b91613353565b90565b9291906127006109e8565b5061271661271085838591611c55565b93613405565b9384612735575b50505061272c61273292613441565b90610a70565b90565b9091935090928015612764576127329361272c920961275c6127565f611730565b916101e7565b11925f61271d565b611916565b90565b61278061277b61278592612769565b61044d565b6101e7565b90565b61279760018060a01b0361276c565b90565b6127ae6127a96127b3926101e7565b61044d565b6101ad565b90565b6127dc6127ce6127e1926127c86112a8565b50610bbb565b6127d6612788565b1661279a565b61046c565b90565b5f90565b90565b6127ff6127fa612804926127e8565b61044d565b6101e7565b90565b61281763ffffffff60e01b6127eb565b90565b90565b61283161282c6128369261281a565b61044d565b6101e7565b90565b61284360e061281d565b90565b6128659061285f61285961286a946101e7565b916101e7565b906117a7565b6101e7565b90565b906128a76128866128ad936128806127e4565b50610bbb565b612897612891612807565b196101e7565b16916128a1612839565b90612846565b17610bbb565b90565b634e487b7160e01b5f52602160045260245ffd5b600711156128ce57565b6128b0565b906128dd826128c4565b565b6128e8906128d3565b90565b90565b6129026128fd612907926128eb565b61044d565b6101e7565b90565b6129299061292361291d61292e946101e7565b916101e7565b90611ecd565b6101e7565b90565b61294561294061294a926101e7565b61044d565b6118b3565b90565b906129aa6129a56129a06129886129786129726129b09761296c6109e8565b50610bbb565b956128df565b61298260206128ee565b90610a3b565b61299a85612994612839565b9061290a565b9461290a565b612931565b6118ec565b90610a70565b90565b610100906129bf611e83565b502090565b906129da926129d16112a8565b5091909161347e565b90565b6129e69061046c565b90565b60e01b90565b612a036129fe612a08926118b3565b6129e9565b611865565b90565b5f90565b925f91606491602094612a256323b872dd6129ef565b92612a2e612a0b565b5060405193845260048401526024830152604482015282855af180612a82575b612a59915015611f4a565b612a5f57565b612a67610112565b63f405907160e01b815280612a7e600482016102c8565b0390fd5b503d5f14612a9e5750612a5960015f5114601f3d11165b612a4e565b5f612a59913b11612a99565b90565b612ac1612abc612ac692612aaa565b61044d565b6101e7565b90565b61ffff60f01b1690565b90612ae1612ae89183611798565b9135612ac9565b9060028110612af6575b5090565b612b0c9061ffff60f01b906002036008026117a7565b165f612af2565b60f01c90565b61ffff1690565b612b34612b2f612b3992612b19565b61044d565b612b19565b90565b612b48612b4d91612b13565b612b20565b90565b612b64612b5f612b6992612b19565b61044d565b6101e7565b90565b93929193612b786109e8565b5042612b8c612b86836101e7565b916101e7565b11155f14612b9b575050505090565b9490929493919342612bb5612baf866101e7565b916101e7565b1015612d2257949094939192935b612bce838390611798565b612be0612bda5f611730565b916101e7565b1115612cf457612c17612c12612c0d612c078686600390612c015f9261174f565b92611773565b906117ab565b611816565b61182a565b90612c5d81612c57612c52612c4d612c478989600390612c41612c3b60059361174f565b92612aad565b92611773565b90612ad3565b612b3c565b612b50565b90610b92565b9442612c71612c6b886101e7565b916101e7565b1115612ca7575050612c9c91612c9691949390612c8e6005612aad565b908092611773565b906119d7565b949091949094612bc3565b909250612cf19550612ceb9350612cdf612cce612ce593612cc94287906119da565b611908565b91612cda8742906119da565b611908565b90610b92565b926119da565b9061192a565b90565b9050612d199150612d13612d1f9493612d0e8542906119da565b611908565b926119da565b9061192a565b90565b509350505050612d315f611730565b90565b634e487b715f526020526024601cfd5b90565b612d5b612d56612d6092612d44565b61044d565b6101e7565b90565b90565b612d7a612d75612d7f92612d63565b61044d565b6101e7565b90565b5f80fd5b90505190612d93826101ea565b565b90602082820312612dae57612dab915f01612d86565b90565b61011c565b612dbb610112565b3d5f823e3d90fd5b9897959391979694929096612dd98782906135aa565b99612de5888390613692565b91612dee6109e8565b90898d612fff575b815f600490612e0490611730565b90612e0e90612d47565b91612e1893611773565b612e2191611871565b612e2a906118d8565b612e33906118ec565b99906004612e4090612d47565b81612e4a93611773565b612e53916119d7565b9c90998d85600c612e6390612d66565b612e6c91611908565b9582918d90885f9091612e7e93611773565b91908a92612e8b916119d7565b90612e959461382d565b15612e9f90611f4a565b612ed3575b505050612ed19a612ec992612ec3929a9b949596979899918092611773565b906119d7565b989097613cc3565b565b9c919390929c612eeb612ee5426101e7565b916101e7565b118015612f48575b612f2557612ed19c612ec994612ec394612f15575b5092829d50819450612ea4565b612f1f908861397e565b5f612f08565b612f2d610112565b6379288a5360e11b815280612f44600482016102c8565b0390fd5b50612fa16020612f777f00000000000000000000000000000000000000000000000000000000000000006129dd565b6370a0823190612f968a92612f8a610112565b958694859384936129e9565b835260048301610602565b03915afa908115612ffa575f91612fcc575b50612fc6612fc05f611730565b916101e7565b14612ef3565b612fed915060203d8111612ff3575b612fe58183610f17565b810190612d95565b5f612fb3565b503d612fdb565b612db3565b61306992509061304f61303c61303761303261302c61306396866004906130265f92612d47565b92611773565b90611871565b6118d8565b6118ec565b61304860a087016109ec565b8a91613724565b9a9061305b6004612d47565b908092611773565b906119d7565b819991612df6565b90565b61308861308361308d92613071565b61044d565b6101e7565b90565b61309d600160fe1b613074565b90565b6130b2906130ac612a0b565b50610bbb565b6130ba613090565b166130cd6130c75f611730565b916101e7565b141590565b6130de6130e4916101e7565b916101e7565b9081156130ef570490565b611916565b92906130fe612a0b565b5061313b61313461312d61311d613116878690610d75565b8890610a70565b613127600161100f565b90610d75565b8490610a3b565b84906130d2565b9361314f61314983926101e7565b916101e7565b145f146131835750505061317961317361317f9261316d6002611c39565b90610a70565b926101e7565b916101e7565b1490565b82613196613190836101e7565b916101e7565b036131c9575b5050506131bf6131b96131c5926131b3600161100f565b90610a70565b926101e7565b916101e7565b1490565b82916131ee6131de6131f3936131f896610d75565b6131e8600161100f565b90610d75565b610a3b565b6130d2565b61320b61320583926101e7565b916101e7565b14613218575f808061319c565b50505f90565b60245f809260209461322e6109e8565b506370a0823160e01b83526004525afa905f519160203d1090151761324f57565b6040513d5f823e3d90fd5b5f90565b6009111561326857565b6128b0565b906132778261325e565b565b6132829061326d565b90565b9161328e6125e1565b90505061329c838390611798565b6132af6132a960206128ee565b916101e7565b106132ed576132e7926132c061325a565b506132c96125e1565b9050506132e160208083359301940391939192613279565b92613de8565b91909190565b50505061331061330a5f365f906133045f92611730565b92611773565b906119d7565b9091565b61331c611e83565b508061333061332a84610187565b91610187565b105f14613345579061334191613e2f565b5b90565b61334e91613e2f565b613342565b91600b9261335f6112a8565b50604051926040840152602083015281520160ff8153605560018060a01b0391201690565b6004111561338e57565b6128b0565b9061339d82613384565b565b6133a890613393565b90565b6133bf6133ba6133c492611c36565b61044d565b611eab565b90565b6133d36133d991611eab565b91611eab565b9081156133e4570690565b611916565b6133fd6133f86134029261100c565b61044d565b611eab565b90565b61341a61342a91613414612a0b565b5061339f565b61342460026133ab565b906133c7565b61343d61343760016133e9565b91611eab565b1490565b6134496109e8565b50151590565b6134589061046c565b90565b91602061347c92949361347560408201965f8301906103b9565b01906103b9565b565b9190916134896112a8565b506134933061344f565b316134a66134a0846101e7565b916101e7565b1061352d57603791763d602d80600a3d3981f3363d3d373d3d3d363d730000006009926e5af43d82803e903d91602b57fd5bf36020528060115260881c175f52f590816135036134fd6134f85f611398565b6101b8565b916101b8565b1461350a57565b613512610112565b63b06ebf3d60e01b815280613529600482016102c8565b0390fd5b506135373061344f565b31613559613543610112565b92839263cf47918160e01b84526004840161345b565b0390fd5b919081101561356d576001020190565b612619565b60ff60f81b1690565b60f81b90565b61359561359061359a9261100c565b61357b565b613572565b90565b6135a76001613581565b90565b6135e6916135e0916135ba612a0b565b506135da6135ca82938093611798565b6135d4600161100f565b90610d75565b9161355d565b35613572565b6135ee61359d565b166136086136026135fd61359d565b613572565b91613572565b1490565b60f81c90565b61362661362161362b92611eab565b61044d565b611eab565b90565b61363a61363f9161360c565b613612565b90565b61364c600361174f565b90565b61366e90613668613662613673946101e7565b91611eab565b90611ecd565b611eab565b90565b61368a61368561368f92611eab565b61044d565b6101e7565b90565b6136dc6136d76136d16136ef946136ea946136ab6109e8565b506136cb6136bb82938093611798565b6136c5600161100f565b90610d75565b9161355d565b35613572565b61362e565b6136e4613642565b9061364f565b613676565b90565b90565b61370961370461370e926136f2565b61044d565b6101e7565b90565b61372166038d7ea4c680006136f5565b90565b6137509261374661374b926137376109e8565b50613740613711565b90610a3b565b610a3b565b6130d2565b90565b69ffffffffffffffffffff1690565b61377661377161377b926101ad565b61044d565b613753565b90565b90565b61379561379061379a9261377e565b61044d565b6101e7565b90565b69ffffffffffffffffffff60b01b1690565b906137bd6137c49183611798565b913561379d565b90600a81106137d2575b5090565b6137f09069ffffffffffffffffffff60b01b90600a036008026117a7565b165f6137ce565b60b01c90565b61381161380c61381692613753565b61044d565b613753565b90565b61382561382a916137f7565b6137fd565b90565b9361384761384c9194929394613841612a0b565b50611f4f565b613762565b926138565f611730565b905b8161386b613865856101e7565b916101e7565b1015613974576138df61389d6138986138928785600a9061388c5f92613781565b92611773565b906137af565b613819565b966138d96138d46138cf6138c98987600a906138c36138bd600c93613781565b92612d66565b92611773565b90612ad3565b612b3c565b612b50565b90610b92565b956138f36138ed8792613753565b91613753565b145f1461391657505050505061391161390b426101e7565b916101e7565b111590565b85919293949561392e613928426101e7565b916101e7565b1161396a576139516139579161395f9690613949600c612d66565b908092611773565b906119d7565b949092612606565b909493929192613858565b5050505050505f90565b5050505050505f90565b8161399161398b5f611730565b916101e7565b1161399b575b5050565b6139ae6139a95f8390610b7c565b6106de565b91826139c26139bc836101e7565b916101e7565b106139ea576139d76139de916139e3946119da565b915f610b7c565b610bda565b5f80613997565b6139f2610112565b6353fe9bc960e11b815280613a09600482016102c8565b0390fd5b90565b613a24613a1f613a2992613a0d565b61044d565b6101e7565b90565b6bffffffffffffffffffffffff191690565b90613a4c613a539183611798565b9135613a2c565b9060148110613a61575b5090565b613a7f906bffffffffffffffffffffffff19906014036008026117a7565b165f613a5d565b60601c90565b613a98613a9d91613a86565b610450565b90565b613aa990613a8c565b90565b613ab590610450565b90565b613ac190613aac565b90565b613acd9061046c565b90565b5f910312613ada57565b61011c565b50613aee9060208101906101fe565b90565b50613b009060208101906113a8565b90565b90503590613b1082611e87565b565b50613b21906020810190613b03565b90565b613b2d90610bbb565b9052565b9060e0613bf8613c0093613b53613b4a5f830183613adf565b5f860190612017565b613b6d613b636020830183613af1565b602086019061200a565b613b87613b7d6040830183613af1565b604086019061200a565b613ba1613b976060830183613af1565b606086019061200a565b613bbb613bb16080830183613af1565b608086019061200a565b613bd5613bcb60a0830183613adf565b60a0860190612017565b613bef613be560c0830183613adf565b60c0860190612017565b82810190613b12565b910190613b24565b565b60209181520190565b90825f939282370152565b9190613c3081613c2981613c3595613c02565b8095613c0b565b610ef9565b0190565b95613c91613cb296613c86613c7a8a613cc09f9d999e9c9798613ca799613c6b613c9c995f6101e08601950190613b31565b8d610100818503910152613c16565b9c6101208b0190610735565b6101408901906105f5565b6101608701906103b9565b6101808501906103b9565b6101a08301906103b9565b6101c0818503910152613c16565b90565b95989791969094939298613cd8838a90611798565b613ceb613ce56014613a10565b916101e7565b11613cfd575b50505050505050505050565b613d62613d22613d1d613d18613d138d88613a3e565b613aa0565b613ab8565b613ac4565b9963462ebde29897999b95969293948091613d5b613d55613d4583601495611798565b613d4f600161100f565b90610d75565b92613a10565b9192611773565b9590948a3b15613de357613d74610112565b9b8c9a613d818c9b6129e9565b8b5260048b0199613d919a613c39565b03815a5f948591f18015613dde57613db2575b808080808080808080613cf1565b613dd1905f3d8111613dd7575b613dc98183610f17565b810190613ad0565b5f613da4565b503d613dbf565b612db3565b612d82565b9391929092613df56125e1565b9050506309605a0160e41b9160051b8560201b811c63ffffffff169586911c63ffffffff1694019484039311613e285750565b5f5260045ffd5b613e37611e83565b505f5260205260405f209056fea26469706673582212202246a2de462ffb361a42c2dad4c4672076cd088fac3e7231e0107a8b834b3e9e64736f6c6343000817003361010060405234620000725762000020620000196200019b565b90620001c2565b6200002a62000078565b61124f620002dd823960805181610509015260a0518181816103a101526108ae015260c05181818161018a0152610ebd015260e05181818161021c0152610e9c015261124f90f35b6200007e565b60405190565b5f80fd5b601f801991011690565b634e487b7160e01b5f52604160045260245ffd5b90620000ac9062000082565b810190811060018060401b03821117620000c557604052565b6200008c565b90620000e2620000da62000078565b9283620000a0565b565b5f80fd5b63ffffffff1690565b620000fc81620000e8565b036200010457565b5f80fd5b905051906200011782620000f1565b565b60018060a01b031690565b6200012f9062000119565b90565b6200013d9062000124565b90565b6200014b8162000132565b036200015357565b5f80fd5b90505190620001668262000140565b565b91906040838203126200019557806200018862000192925f860162000108565b9360200162000157565b90565b620000e4565b620001be6200152c80380380620001b281620000cb565b92833981019062000168565b9091565b90620001ce91620001d0565b565b90620001dc916200021f565b565b90565b620001fa620001f4620002009262000119565b620001de565b62000119565b90565b6200020e90620001e1565b90565b6200021c9062000203565b90565b906200022b9162000245565b620002406200023a3062000211565b62000293565b60e052565b90620002519162000278565b565b90565b6200026f620002696200027592620000e8565b620001de565b62000253565b90565b62000287903360c05262000256565b60a052608052565b5f90565b763d602d80600a3d3981f3363d3d373d3d3d363d7300000090620002b66200028f565b506e5af43d82803e903d91602b57fd5bf36020528060115260881c175f5260376009209056fe60806040526004361015610013575b61041a565b61001d5f3561008c565b80630af975581461008757806323305703146100825780632dd310001461007d57806334862b6a146100785780634649088b1461007357806390d3252f1461006e5763f56cd69c0361000e576103e5565b61036c565b610319565b610260565b6101e5565b610145565b610111565b60e01c90565b60405190565b5f80fd5b5f80fd5b90565b6100ac816100a0565b036100b357565b5f80fd5b905035906100c4826100a3565b565b5f80fd5b90816101009103126100d95790565b6100c6565b91906101208382031261010757806100fb610104925f86016100b7565b936020016100ca565b90565b61009c565b5f0190565b346101405761012a6101243660046100de565b906106cc565b610132610092565b8061013c8161010c565b0390f35b610098565b346101745761015e6101583660046100de565b9061081d565b610166610092565b806101708161010c565b0390f35b610098565b5f91031261018357565b61009c565b7f000000000000000000000000000000000000000000000000000000000000000090565b60018060a01b031690565b6101c0906101ac565b90565b6101cc906101b7565b9052565b91906101e3905f602085019401906101c3565b565b34610215576101f5366004610179565b610211610200610188565b610208610092565b918291826101d0565b0390f35b610098565b7f000000000000000000000000000000000000000000000000000000000000000090565b610247906100a0565b9052565b919061025e905f6020850194019061023e565b565b3461029057610270366004610179565b61028c61027b61021a565b610283610092565b9182918261024b565b0390f35b610098565b61029e816101b7565b036102a557565b5f80fd5b905035906102b682610295565b565b90565b6102c4816102b8565b036102cb57565b5f80fd5b905035906102dc826102bb565b565b909161014082840312610314576103116102fa845f85016102a9565b9361030881602086016102cf565b936040016100ca565b90565b61009c565b346103485761033261032c3660046102de565b91610987565b61033a610092565b806103448161010c565b0390f35b610098565b906101008282031261036757610364915f016100ca565b90565b61009c565b3461039a5761038461037f36600461034d565b610af8565b61038c610092565b806103968161010c565b0390f35b610098565b7f000000000000000000000000000000000000000000000000000000000000000090565b6103cc906102b8565b9052565b91906103e3905f602085019401906103c3565b565b34610415576103f5366004610179565b61041161040061039f565b610408610092565b918291826103d0565b0390f35b610098565b5f80fd5b90565b61043561043061043a926101ac565b61041e565b6101ac565b90565b61044690610421565b90565b6104529061043d565b90565b601f801991011690565b634e487b7160e01b5f52604160045260245ffd5b9061047d90610455565b810190811067ffffffffffffffff82111761049757604052565b61045f565b60e01b90565b905051906104af826102bb565b565b906020828203126104ca576104c7915f016104a2565b90565b61009c565b6104d7610092565b3d5f823e3d90fd5b90565b6104f66104f16104fb926104df565b61041e565b6102b8565b90565b90610557602061052d7f0000000000000000000000000000000000000000000000000000000000000000610449565b6370a082319061054c3392610540610092565b9586948593849361049c565b8352600483016101d0565b03915afa9081156105dd575f916105af575b5061057c6105765f6104e2565b916102b8565b1461058c5761058a91610603565b565b610594610092565b6348f5c3ed60e01b8152806105ab6004820161010c565b0390fd5b6105d0915060203d81116105d6575b6105c88183610473565b8101906104b1565b5f610569565b503d6105be565b6104cf565b6105eb816102b8565b036105f257565b5f80fd5b35610600816105e2565b90565b9061061b61061360e083016105f6565b600590610c83565b61062e61062842926102b8565b916102b8565b1061063e5761063c91610661565b565b610646610092565b6337bf561360e11b81528061065d6004820161010c565b0390fd5b9061067961067160e083016105f6565b600690610c83565b61068c61068642926102b8565b916102b8565b101561069d5761069b916106c0565b565b6106a5610092565b6337bf561360e11b8152806106bc6004820161010c565b0390fd5b906106ca91610df7565b565b906106d6916104fe565b565b6106e1816102b8565b036106e857565b5f80fd5b356106f6816106d8565b90565b908061072161071b61071661071160603395016106ec565b610e54565b6101b7565b916101b7565b036107315761072f91610754565b565b610739610092565b6348f5c3ed60e01b8152806107506004820161010c565b0390fd5b9061076c61076460e083016105f6565b600490610c83565b61077f61077942926102b8565b916102b8565b1061078f5761078d916107b2565b565b610797610092565b6337bf561360e11b8152806107ae6004820161010c565b0390fd5b906107ca6107c260e083016105f6565b600690610c83565b6107dd6107d742926102b8565b916102b8565b10156107ee576107ec91610811565b565b6107f6610092565b6337bf561360e11b81528061080d6004820161010c565b0390fd5b9061081b91610df7565b565b90610827916106f9565b565b91908161085261084c61084761084260603395016106ec565b610e54565b6101b7565b916101b7565b036108625761086092610885565b565b61086a610092565b6348f5c3ed60e01b8152806108816004820161010c565b0390fd5b90610899929161089483610e8e565b61089b565b565b91906108d36108ac60e084016105f6565b7f000000000000000000000000000000000000000000000000000000000000000090610f34565b6108e66108e042926102b8565b916102b8565b106108f6576108f49261093c565b565b6108fe610092565b6337bf561360e11b8152806109156004820161010c565b0390fd5b91602061093a92949361093360408201965f8301906101c3565b01906103c3565b565b90915061094b81338491610fa4565b907fc4474c2790e13695f6d2b6f1d8e164290b55370f87a542fd7711abe0a1bf40ac91610982610979610092565b92839283610919565b0390a1565b906109929291610829565b565b806109bb6109b56109b06109ab60603395016106ec565b610e54565b6101b7565b916101b7565b036109cb576109c9906109ee565b565b6109d3610092565b6348f5c3ed60e01b8152806109ea6004820161010c565b0390fd5b610a00906109fb81610e8e565b610a02565b565b610a19610a1160e083016105f6565b600690610c83565b610a2c610a2642926102b8565b916102b8565b10610a3c57610a3a90610a6c565b565b610a44610092565b6337bf561360e11b815280610a5b6004820161010c565b0390fd5b35610a69816102bb565b90565b610ac090610aad610a87610a82608084016106ec565b610e54565b610a9b610a96606085016106ec565b610e54565b610aa760a08501610a5f565b91610fa4565b610aba60c0339201610a5f565b90611091565b7f6e3be9294e58d10b9c8053cfd5e09871b67e442fe394d6b0870d336b9df984a9610ae9610092565b80610af38161010c565b0390a1565b610b0190610994565b565b5f90565b610b1b610b16610b20926102b8565b61041e565b6102b8565b90565b634e487b7160e01b5f52602160045260245ffd5b60071115610b4157565b610b23565b90610b5082610b37565b565b610b5b90610b46565b90565b90565b610b75610b70610b7a92610b5e565b61041e565b6102b8565b90565b634e487b7160e01b5f52601160045260245ffd5b610ba0610ba6919392936102b8565b926102b8565b91610bb28382026102b8565b928184041490151715610bc157565b610b7d565b90565b610bdd610bd8610be292610bc6565b61041e565b6102b8565b90565b610bef60e0610bc9565b90565b1c90565b610c1590610c0f610c09610c1a946102b8565b916102b8565b90610bf2565b6102b8565b90565b63ffffffff1690565b610c3a610c35610c3f926102b8565b61041e565b610c1d565b90565b610c56610c51610c5b92610c1d565b61041e565b6102b8565b90565b610c6d610c73919392936102b8565b926102b8565b8201809211610c7e57565b610b7d565b90610ce0610cdb610cd6610cbe610cae610ca8610ce697610ca2610b03565b50610b07565b95610b52565b610cb86020610b61565b90610b91565b610cd085610cca610be5565b90610bf6565b94610bf6565b610c26565b610c42565b90610c5e565b90565b90610cfc91610cf782610e8e565b610d0b565b565b35610d08816100a3565b90565b9081610d34610d2e610d296020610d2286956110ec565b9401610cfe565b6100a0565b916100a0565b03610d4457610d4291610d67565b565b610d4c610092565b63abab6bd760e01b815280610d636004820161010c565b0390fd5b90610dbc90610da9610d83610d7e608084016106ec565b610e54565b610d97610d92604085016106ec565b610e54565b610da360a08501610a5f565b91610fa4565b610db660c0339201610a5f565b90611091565b610df27fe346f5c97a360db5188bfa5d3ec5f0583abde420c6ba4d08b6cfe61addc1710591610de9610092565b9182918261024b565b0390a1565b90610e0191610ce9565b565b5f90565b90565b610e1e610e19610e2392610e07565b61041e565b6102b8565b90565b610e3560018060a01b03610e0a565b90565b610e4c610e47610e51926102b8565b61041e565b6101ac565b90565b610e7a610e6c610e7f92610e66610e03565b50610b07565b610e74610e26565b16610e38565b61043d565b90565b610e8b9061043d565b90565b610e9a610ee2916110fe565b7f00000000000000000000000000000000000000000000000000000000000000007f000000000000000000000000000000000000000000000000000000000000000091611116565b610efc610ef6610ef130610e82565b6101b7565b916101b7565b03610f0357565b610f0b610092565b635134a42560e11b815280610f226004820161010c565b0390fd5b90610f3191016102b8565b90565b610f5b610f4d610f6193610f46610b03565b5092610b07565b610f55610be5565b90610bf6565b90610f26565b90565b610f78610f73610f7d926104df565b61041e565b6101ac565b90565b610f8990610f64565b90565b610f9590610421565b90565b610fa190610f8c565b90565b919082610fc1610fbb610fb65f610f80565b6101b7565b916101b7565b145f14610fd557610fd29250611091565b5b565b90610fe2610fea93610f98565b91909161116f565b610fd3565b905090565b610fff5f8092610fef565b0190565b61100c90610ff4565b90565b9061102261101b610092565b9283610473565b565b67ffffffffffffffff81116110425761103e602091610455565b0190565b61045f565b9061105961105483611024565b61100f565b918252565b606090565b3d5f1461107e576110733d611047565b903d5f602084013e5b565b61108661105e565b9061107c565b151590565b5f6110bf928192906110a1610092565b90816110ac81611003565b03925af16110b8611063565b501561108c565b6110c557565b6110cd610092565b638a0332d560e01b8152806110e46004820161010c565b0390fd5b5f90565b6110f46110e8565b505f5260205f2090565b6101009061110a6110e8565b50816040519182372090565b91600b92611122610e03565b50604051926040840152602083015281520160ff8153605560018060a01b0391201690565b63ffffffff60e01b1690565b61116761116261116c92610c1d565b61049c565b611147565b90565b906111949261118e929161118663a9059cbb611153565b9091926111c1565b1561108c565b61119a57565b6111a2610092565b63fb7f507960e01b8152806111b96004820161010c565b0390fd5b5f90565b93925f916044916020946111d36111bd565b506040519283526004830152602482015282865af191826111f2575b50565b9091503d5f1461120f575060015f5114601f3d1116905b5f6111ef565b5f903b119061120956fea2646970667358221220ec9e91fff94ff97783ce17cd06cdaefe3bedd41395b4c77dd1581dc9fa43e79264736f6c634300081700336101006040523462000079576200002062000019620001a2565b90620001c9565b6200002a6200007f565b6115cd620002e482396080518181816105cb0152610c7d015260a051818181610463015261098a015260c0518181816101aa01526111a0015260e05181818161023c015261117f01526115cd90f35b62000085565b60405190565b5f80fd5b601f801991011690565b634e487b7160e01b5f52604160045260245ffd5b90620000b39062000089565b810190811060018060401b03821117620000cc57604052565b62000093565b90620000e9620000e16200007f565b9283620000a7565b565b5f80fd5b63ffffffff1690565b6200010381620000ef565b036200010b57565b5f80fd5b905051906200011e82620000f8565b565b60018060a01b031690565b620001369062000120565b90565b62000144906200012b565b90565b620001528162000139565b036200015a57565b5f80fd5b905051906200016d8262000147565b565b91906040838203126200019c57806200018f62000199925f86016200010f565b936020016200015e565b90565b620000eb565b620001c5620018b180380380620001b981620000d2565b9283398101906200016f565b9091565b90620001d591620001d7565b565b90620001e39162000226565b565b90565b62000201620001fb620002079262000120565b620001e5565b62000120565b90565b6200021590620001e8565b90565b62000223906200020a565b90565b9062000232916200024c565b62000247620002413062000218565b6200029a565b60e052565b9062000258916200027f565b565b90565b62000276620002706200027c92620000ef565b620001e5565b6200025a565b90565b6200028e903360c0526200025d565b60a052608052565b5f90565b763d602d80600a3d3981f3363d3d373d3d3d363d7300000090620002bd62000296565b506e5af43d82803e903d91602b57fd5bf36020528060115260881c175f5260376009209056fe60806040526004361015610013575b6104dc565b61001d5f356100ac565b80630af97558146100a757806323305703146100a25780632dd310001461009d57806334862b6a146100985780634649088b146100935780636c10c0c81461008e57806390d3252f14610089578063daff233e146100845763f56cd69c0361000e576104a7565b61042e565b6103fb565b6103a8565b610339565b610280565b610205565b610165565b610131565b60e01c90565b60405190565b5f80fd5b5f80fd5b90565b6100cc816100c0565b036100d357565b5f80fd5b905035906100e4826100c3565b565b5f80fd5b90816101009103126100f95790565b6100e6565b919061012083820312610127578061011b610124925f86016100d7565b936020016100ea565b90565b6100bc565b5f0190565b346101605761014a6101443660046100fe565b906107c6565b6101526100b2565b8061015c8161012c565b0390f35b6100b8565b346101945761017e6101783660046100fe565b906108f9565b6101866100b2565b806101908161012c565b0390f35b6100b8565b5f9103126101a357565b6100bc565b7f000000000000000000000000000000000000000000000000000000000000000090565b60018060a01b031690565b6101e0906101cc565b90565b6101ec906101d7565b9052565b9190610203905f602085019401906101e3565b565b3461023557610215366004610199565b6102316102206101a8565b6102286100b2565b918291826101f0565b0390f35b6100b8565b7f000000000000000000000000000000000000000000000000000000000000000090565b610267906100c0565b9052565b919061027e905f6020850194019061025e565b565b346102b057610290366004610199565b6102ac61029b61023a565b6102a36100b2565b9182918261026b565b0390f35b6100b8565b6102be816101d7565b036102c557565b5f80fd5b905035906102d6826102b5565b565b90565b6102e4816102d8565b036102eb57565b5f80fd5b905035906102fc826102db565b565b9091610140828403126103345761033161031a845f85016102c9565b9361032881602086016102ef565b936040016100ea565b90565b6100bc565b346103685761035261034c3660046102fe565b91610a63565b61035a6100b2565b806103648161012c565b0390f35b6100b8565b9091610140828403126103a3576103a0610389845f85016100d7565b9361039781602086016102c9565b936040016100ea565b90565b6100bc565b346103d7576103c16103bb36600461036d565b91610b99565b6103c96100b2565b806103d38161012c565b0390f35b6100b8565b90610100828203126103f6576103f3915f016100ea565b90565b6100bc565b346104295761041361040e3660046103dc565b610c68565b61041b6100b2565b806104258161012c565b0390f35b6100b8565b3461045c576104466104413660046103dc565b610dbe565b61044e6100b2565b806104588161012c565b0390f35b6100b8565b7f000000000000000000000000000000000000000000000000000000000000000090565b61048e906102d8565b9052565b91906104a5905f60208501940190610485565b565b346104d7576104b7366004610199565b6104d36104c2610461565b6104ca6100b2565b91829182610492565b0390f35b6100b8565b5f80fd5b90565b6104f76104f26104fc926101cc565b6104e0565b6101cc565b90565b610508906104e3565b90565b610514906104ff565b90565b601f801991011690565b634e487b7160e01b5f52604160045260245ffd5b9061053f90610517565b810190811067ffffffffffffffff82111761055957604052565b610521565b60e01b90565b90505190610571826102db565b565b9060208282031261058c57610589915f01610564565b90565b6100bc565b6105996100b2565b3d5f823e3d90fd5b90565b6105b86105b36105bd926105a1565b6104e0565b6102d8565b90565b9061061960206105ef7f000000000000000000000000000000000000000000000000000000000000000061050b565b6370a082319061060e33926106026100b2565b9586948593849361055e565b8352600483016101f0565b03915afa90811561069f575f91610671575b5061063e6106385f6105a4565b916102d8565b1461064e5761064c916106c5565b565b6106566100b2565b6348f5c3ed60e01b81528061066d6004820161012c565b0390fd5b610692915060203d8111610698575b61068a8183610535565b810190610573565b5f61062b565b503d610680565b610591565b6106ad816102d8565b036106b457565b5f80fd5b356106c2816106a4565b90565b906106dd6106d560e083016106b8565b600190610f49565b6106f06106ea42926102d8565b916102d8565b10610700576106fe91610723565b565b6107086100b2565b6337bf561360e11b81528061071f6004820161012c565b0390fd5b9061073b61073360e083016106b8565b600290610f49565b61074e61074842926102d8565b916102d8565b101561075f5761075d916107a3565b565b6107676100b2565b6337bf561360e11b81528061077e6004820161012c565b0390fd5b61078b816102d8565b0361079257565b5f80fd5b356107a081610782565b90565b906107c491906107bd6107b860608301610796565b611000565b9091611158565b565b906107d0916105c0565b565b90806107fa6107f46107ef6107ea6060339501610796565b611000565b6101d7565b916101d7565b0361080a576108089161082d565b565b6108126100b2565b6348f5c3ed60e01b8152806108296004820161012c565b0390fd5b9061084461083d60e083016106b8565b5f90610f49565b61085761085142926102d8565b916102d8565b10610867576108659161088a565b565b61086f6100b2565b6337bf561360e11b8152806108866004820161012c565b0390fd5b906108a261089a60e083016106b8565b600290610f49565b6108b56108af42926102d8565b916102d8565b10156108c6576108c4916108e9565b565b6108ce6100b2565b6337bf561360e11b8152806108e56004820161012c565b0390fd5b906108f79190339091611158565b565b90610903916107d2565b565b91908161092e61092861092361091e6060339501610796565b611000565b6101d7565b916101d7565b0361093e5761093c92610961565b565b6109466100b2565b6348f5c3ed60e01b81528061095d6004820161012c565b0390fd5b90610975929161097083611171565b610977565b565b91906109af61098860e084016106b8565b7f000000000000000000000000000000000000000000000000000000000000000090611217565b6109c26109bc42926102d8565b916102d8565b106109d2576109d092610a18565b565b6109da6100b2565b6337bf561360e11b8152806109f16004820161012c565b0390fd5b916020610a16929493610a0f60408201965f8301906101e3565b0190610485565b565b909150610a278133849161126f565b907fc4474c2790e13695f6d2b6f1d8e164290b55370f87a542fd7711abe0a1bf40ac91610a5e610a556100b2565b928392836109f5565b0390a1565b90610a6e9291610905565b565b919081610a99610a93610a8e610a896060339501610796565b611000565b6101d7565b916101d7565b03610aa957610aa792610acc565b565b610ab16100b2565b6348f5c3ed60e01b815280610ac86004820161012c565b0390fd5b9190610ae4610add60e084016106b8565b5f90610f49565b610af7610af142926102d8565b916102d8565b10610b0757610b0592610b2a565b565b610b0f6100b2565b6337bf561360e11b815280610b266004820161012c565b0390fd5b9190610b43610b3b60e084016106b8565b600290610f49565b610b56610b5042926102d8565b916102d8565b1015610b6757610b6592610b8a565b565b610b6f6100b2565b6337bf561360e11b815280610b866004820161012c565b0390fd5b91610b9792919091611158565b565b90610ba49291610a70565b565b80610bcd610bc7610bc2610bbd6060339501610796565b611000565b6101d7565b916101d7565b03610bdd57610bdb90610c00565b565b610be56100b2565b6348f5c3ed60e01b815280610bfc6004820161012c565b0390fd5b610c17610c0f60e083016106b8565b600290610f49565b610c2a610c2442926102d8565b916102d8565b10610c3a57610c3890610c5d565b565b610c426100b2565b6337bf561360e11b815280610c596004820161012c565b0390fd5b610c6690611362565b565b610c7190610ba6565b565b610ccb6020610ca17f000000000000000000000000000000000000000000000000000000000000000061050b565b6370a0823190610cc03392610cb46100b2565b9586948593849361055e565b8352600483016101f0565b03915afa908115610d51575f91610d23575b50610cf0610cea5f6105a4565b916102d8565b14610d0057610cfe90610d56565b565b610d086100b2565b6348f5c3ed60e01b815280610d1f6004820161012c565b0390fd5b610d44915060203d8111610d4a575b610d3c8183610535565b810190610573565b5f610cdd565b503d610d32565b610591565b610d6d610d6560e083016106b8565b600390610f49565b610d80610d7a42926102d8565b916102d8565b10610d9057610d8e90610db3565b565b610d986100b2565b6337bf561360e11b815280610daf6004820161012c565b0390fd5b610dbc90611362565b565b610dc790610c73565b565b5f90565b610de1610ddc610de6926102d8565b6104e0565b6102d8565b90565b634e487b7160e01b5f52602160045260245ffd5b60071115610e0757565b610de9565b90610e1682610dfd565b565b610e2190610e0c565b90565b90565b610e3b610e36610e4092610e24565b6104e0565b6102d8565b90565b634e487b7160e01b5f52601160045260245ffd5b610e66610e6c919392936102d8565b926102d8565b91610e788382026102d8565b928184041490151715610e8757565b610e43565b90565b610ea3610e9e610ea892610e8c565b6104e0565b6102d8565b90565b610eb560e0610e8f565b90565b1c90565b610edb90610ed5610ecf610ee0946102d8565b916102d8565b90610eb8565b6102d8565b90565b63ffffffff1690565b610f00610efb610f05926102d8565b6104e0565b610ee3565b90565b610f1c610f17610f2192610ee3565b6104e0565b6102d8565b90565b610f33610f39919392936102d8565b926102d8565b8201809211610f4457565b610e43565b90610fa6610fa1610f9c610f84610f74610f6e610fac97610f68610dc9565b50610dcd565b95610e18565b610f7e6020610e27565b90610e57565b610f9685610f90610eab565b90610ebc565b94610ebc565b610eec565b610f08565b90610f24565b90565b5f90565b90565b610fca610fc5610fcf92610fb3565b6104e0565b6102d8565b90565b610fe160018060a01b03610fb6565b90565b610ff8610ff3610ffd926102d8565b6104e0565b6101cc565b90565b61102661101861102b92611012610faf565b50610dcd565b611020610fd2565b16610fe4565b6104ff565b90565b90611042929161103d83611171565b611051565b565b3561104e816100c3565b90565b91908261107b61107561107060206110698795611371565b9401611044565b6100c0565b916100c0565b0361108b57611089926110d3565b565b6110936100b2565b63abab6bd760e01b8152806110aa6004820161012c565b0390fd5b6110b7906104e3565b90565b6110c3906110ae565b90565b356110d0816102db565b90565b9161110a61111d926110f76110f26110ed60808601610796565b611000565b6110ba565b9061110460a085016110c6565b916113b0565b61111760c03392016110c6565b9061149b565b6111537fe346f5c97a360db5188bfa5d3ec5f0583abde420c6ba4d08b6cfe61addc171059161114a6100b2565b9182918261026b565b0390a1565b90611163929161102e565b565b61116e906104ff565b90565b61117d6111c5916114f2565b7f00000000000000000000000000000000000000000000000000000000000000007f00000000000000000000000000000000000000000000000000000000000000009161150a565b6111df6111d96111d430611165565b6101d7565b916101d7565b036111e657565b6111ee6100b2565b635134a42560e11b8152806112056004820161012c565b0390fd5b9061121491016102d8565b90565b61123e61123061124493611229610dc9565b5092610dcd565b611238610eab565b90610ebc565b90611209565b90565b61125b611256611260926105a1565b6104e0565b6101cc565b90565b61126c90611247565b90565b91908261128c6112866112815f611263565b6101d7565b916101d7565b145f146112a05761129d925061149b565b5b565b906112ad6112b5936110ba565b9190916113b0565b61129e565b6112cc906112c781611171565b6112ce565b565b61132a906113176112f16112ec6112e760808501610796565b611000565b6110ba565b61130561130060408501610796565b611000565b61131160a085016110c6565b916113b0565b61132460c03392016110c6565b9061149b565b7f6e3be9294e58d10b9c8053cfd5e09871b67e442fe394d6b0870d336b9df984a96113536100b2565b8061135d8161012c565b0390a1565b61136b906112ba565b565b5f90565b61137961136d565b505f5260205f2090565b63ffffffff60e01b1690565b6113a361139e6113a892610ee3565b61055e565b611383565b90565b151590565b906113d5926113cf92916113c763a9059cbb61138f565b90919261153f565b156113ab565b6113db57565b6113e36100b2565b63fb7f507960e01b8152806113fa6004820161012c565b0390fd5b905090565b61140e5f80926113fe565b0190565b61141b90611403565b90565b9061143161142a6100b2565b9283610535565b565b67ffffffffffffffff81116114515761144d602091610517565b0190565b610521565b9061146861146383611433565b61141e565b918252565b606090565b3d5f1461148d576114823d611456565b903d5f602084013e5b565b61149561146d565b9061148b565b5f6114c9928192906114ab6100b2565b90816114b681611412565b03925af16114c2611472565b50156113ab565b6114cf57565b6114d76100b2565b638a0332d560e01b8152806114ee6004820161012c565b0390fd5b610100906114fe61136d565b50816040519182372090565b91600b92611516610faf565b50604051926040840152602083015281520160ff8153605560018060a01b0391201690565b5f90565b93925f9160449160209461155161153b565b506040519283526004830152602482015282865af19182611570575b50565b9091503d5f1461158d575060015f5114601f3d1116905b5f61156d565b5f903b119061158756fea2646970667358221220d5ed8b9ff8ae27dc62292cd15b91bfdb2185cf4b99ce6b4e922515e332fdc1b264736f6c6343000817003360c06040523462000074576200001f62000018620001d9565b916200027a565b620000296200007a565b6116d96200047182396080518181816106a701528181610ba801528181610d5b0152610df5015260a0518181816107ab01528181610ad101528181610cc30152610e5301526116d990f35b62000080565b60405190565b5f80fd5b601f801991011690565b634e487b7160e01b5f52604160045260245ffd5b90620000ae9062000084565b810190811060018060401b03821117620000c757604052565b6200008e565b90620000e4620000dc6200007a565b9283620000a2565b565b5f80fd5b60018060a01b031690565b6200010090620000ea565b90565b6200010e90620000f5565b90565b6200011c8162000103565b036200012457565b5f80fd5b90505190620001378262000111565b565b6200014490620000f5565b90565b620001528162000139565b036200015a57565b5f80fd5b905051906200016d8262000147565b565b6200017a81620000f5565b036200018257565b5f80fd5b9050519062000195826200016f565b565b9091606082840312620001d357620001d0620001b6845f850162000128565b93620001c681602086016200015e565b9360400162000186565b90565b620000e6565b620001fc62001b4a80380380620001f081620000cd565b92833981019062000197565b909192565b90565b6200021d620002176200022392620000ea565b62000201565b620000ea565b90565b620002319062000204565b90565b6200023f9062000226565b90565b90565b6200025e62000258620002649262000242565b62000201565b620000ea565b90565b620002729062000245565b90565b5f0190565b909162000287906200030d565b620002928262000234565b620002b2620002ab620002a55f62000267565b620000f5565b91620000f5565b14620002c05760a052608052565b620002ca6200007a565b63d92e233d60e01b815280620002e36004820162000275565b0390fd5b620002f290620000f5565b9052565b91906200030b905f60208501940190620002e7565b565b806200032e62000327620003215f62000267565b620000f5565b91620000f5565b1462000341576200033f9062000405565b565b62000371620003505f62000267565b6200035a6200007a565b918291631e4fbdf760e01b835260048301620002f6565b0390fd5b5f1c90565b60018060a01b031690565b620003946200039a9162000375565b6200037a565b90565b620003a9905462000385565b90565b5f1b90565b90620003c460018060a01b0391620003ac565b9181191691161790565b620003d99062000226565b90565b90565b90620003f9620003f36200040192620003ce565b620003dc565b8254620003b1565b9055565b620004105f6200039d565b6200041c825f620003df565b90620004546200044d7f8be0079c531659141344cd1fd0a4f28419497f9722a3daafe3b4186f6b6457e093620003ce565b91620003ce565b916200045f6200007a565b806200046b8162000275565b0390a356fe60806040526004361015610013575b610648565b61001d5f356100dc565b8063205c2878146100d75780632e1a7d4d146100d25780632f4f21e2146100cd57806332d323a5146100c85780635886216f146100c3578063715018a6146100be57806378e3214f146100b95780638da5cb5b146100b457806397a2cb64146100af578063b6b55f25146100aa578063bfe91734146100a55763f2fde38b0361000e57610615565b6105df565b610564565b61052e565b610484565b61042e565b61039f565b610356565b6102ff565b61022c565b6101f7565b6101a3565b60e01c90565b60405190565b5f80fd5b5f80fd5b5f80fd5b60018060a01b031690565b610108906100f4565b90565b610114816100ff565b0361011b57565b5f80fd5b9050359061012c8261010b565b565b90565b61013a8161012e565b0361014157565b5f80fd5b9050359061015282610131565b565b919060408382031261017c5780610170610179925f860161011f565b93602001610145565b90565b6100ec565b61018a9061012e565b9052565b91906101a1905f60208501940190610181565b565b346101d4576101d06101bf6101b9366004610154565b90610650565b6101c76100e2565b9182918261018e565b0390f35b6100e8565b906020828203126101f2576101ef915f01610145565b90565b6100ec565b346102275761022361021261020d3660046101d9565b610666565b61021a6100e2565b9182918261018e565b0390f35b6100e8565b3461025d57610259610248610242366004610154565b9061067c565b6102506100e2565b9182918261018e565b0390f35b6100e8565b5f80fd5b5f80fd5b5f80fd5b909182601f830112156102a85781359167ffffffffffffffff83116102a357602001926001830284011161029e57565b61026a565b610266565b610262565b916060838303126102fa576102c4825f850161011f565b926102d28360208301610145565b92604082013567ffffffffffffffff81116102f5576102f1920161026e565b9091565b6100f0565b6100ec565b346103335761032f61031e6103153660046102ad565b92919091610692565b6103266100e2565b9182918261018e565b0390f35b6100e8565b906020828203126103515761034e915f0161011f565b90565b6100ec565b346103865761038261037161036c366004610338565b610797565b6103796100e2565b9182918261018e565b0390f35b6100e8565b5f91031261039557565b6100ec565b5f0190565b346103cd576103af36600461038b565b6103b761088f565b6103bf6100e2565b806103c98161039a565b0390f35b6100e8565b6103db906100ff565b90565b6103e7816103d2565b036103ee57565b5f80fd5b905035906103ff826103de565b565b9190604083820312610429578061041d610426925f86016103f2565b93602001610145565b90565b6100ec565b3461045d57610447610441366004610401565b906108dd565b61044f6100e2565b806104598161039a565b0390f35b6100e8565b61046b906100ff565b9052565b9190610482905f60208501940190610462565b565b346104b45761049436600461038b565b6104b061049f61091e565b6104a76100e2565b9182918261046f565b0390f35b6100e8565b909182601f830112156104f35781359167ffffffffffffffff83116104ee5760200192602083028401116104e957565b61026a565b610266565b610262565b90602082820312610529575f82013567ffffffffffffffff81116105245761052092016104b9565b9091565b6100f0565b6100ec565b3461055f5761055b61054a6105443660046104f8565b90610bd1565b6105526100e2565b9182918261018e565b0390f35b6100e8565b346105945761059061057f61057a3660046101d9565b610be6565b6105876100e2565b9182918261018e565b0390f35b6100e8565b9190916040818403126105da576105b2835f8301610145565b92602082013567ffffffffffffffff81116105d5576105d1920161026e565b9091565b6100f0565b6100ec565b346106105761060c6105fb6105f5366004610599565b91610bfc565b6106036100e2565b9182918261018e565b0390f35b6100e8565b346106435761062d610628366004610338565b610c84565b6106356100e2565b8061063f8161039a565b0390f35b6100e8565b5f80fd5b5f90565b906106639161065d61064c565b50610cb2565b90565b6106799061067261064c565b5033610cb2565b90565b9061068f9161068961064c565b50610dc3565b90565b90916106ce906106d3946106a461064c565b507f0000000000000000000000000000000000000000000000000000000000000000919091610f22565b610dc3565b90565b90565b6106ed6106e86106f2926100f4565b6106d6565b6100f4565b90565b6106fe906106d9565b90565b61070a906106f5565b90565b601f801991011690565b634e487b7160e01b5f52604160045260245ffd5b906107359061070d565b810190811067ffffffffffffffff82111761074f57604052565b610717565b60e01b90565b9050519061076782610131565b565b906020828203126107825761077f915f0161075a565b90565b6100ec565b61078f6100e2565b3d5f823e3d90fd5b60206107f6916107a561064c565b506107cf7f0000000000000000000000000000000000000000000000000000000000000000610701565b6107eb635886216f6107df6100e2565b95869485938493610754565b83526004830161046f565b03915afa90811561083a575f9161080c575b5090565b61082d915060203d8111610833575b610825818361072b565b810190610769565b5f610808565b503d61081b565b610787565b610847610f4f565b61084f61087c565b565b90565b61086861086361086d92610851565b6106d6565b6100f4565b90565b61087990610854565b90565b61088d6108885f610870565b610fe2565b565b61089761083f565b565b906108ab916108a6610f4f565b6108c5565b565b6108b6906106d9565b90565b6108c2906108ad565b90565b906108db91906108d4336108b9565b9091611123565b565b906108e791610899565b565b5f90565b5f1c90565b60018060a01b031690565b61090961090e916108ed565b6108f2565b90565b61091b90546108fd565b90565b6109266108e9565b506109305f610911565b90565b906109469291610941610f4f565b610a6a565b90565b5090565b61096161095c61096692610851565b6106d6565b61012e565b90565b6001610975910161012e565b90565b634e487b7160e01b5f52603260045260245ffd5b919081101561099c576020020190565b610978565b356109ab8161010b565b90565b6109b7906106f5565b90565b906109c4906109ae565b5f5260205260405f2090565b90565b6109df6109e4916108ed565b6109d0565b90565b6109f190546109d3565b90565b5f1b90565b90610a055f19916109f4565b9181191691161790565b610a23610a1e610a289261012e565b6106d6565b61012e565b90565b90565b90610a43610a3e610a4a92610a0f565b610a2b565b82546109f9565b9055565b90610a59910361012e565b90565b90610a67910161012e565b90565b929190610a78818390610949565b92610a825f61094d565b945b85610a97610a918761012e565b9161012e565b1015610b9d57610b1f610ab4610aaf85878a9161098c565b6109a1565b91610ac9610ac4600185906109ba565b6109e7565b926020610af57f0000000000000000000000000000000000000000000000000000000000000000610701565b635886216f90610b148492610b086100e2565b97889485938493610754565b83526004830161046f565b03915afa908115610b9857610b6494610b53610b5893610b5e965f91610b6a575b5092610b4e849160016109ba565b610a2e565b610a4e565b90610a5c565b95610969565b94610a84565b610b8b915060203d8111610b91575b610b83818361072b565b810190610769565b5f610b40565b503d610b79565b610787565b945092505050610bcf7f0000000000000000000000000000000000000000000000000000000000000000338491611251565b565b90610be391610bde61064c565b610933565b90565b610bf990610bf261064c565b5033610dc3565b90565b9091610c1592610c0a61064c565b503392909192610692565b90565b610c2990610c24610f4f565b610c2b565b565b80610c46610c40610c3b5f610870565b6100ff565b916100ff565b14610c5657610c5490610fe2565b565b610c80610c625f610870565b610c6a6100e2565b918291631e4fbdf760e01b83526004830161046f565b0390fd5b610c8d90610c18565b565b916020610cb0929493610ca960408201965f830190610462565b0190610181565b565b919091610cbd61064c565b50610ce77f0000000000000000000000000000000000000000000000000000000000000000610701565b9060206385eda2de923390610d0f5f8896610d1a610d036100e2565b98899687958694610754565b845260048401610c8f565b03925af18015610db257610d82925f91610d84575b5093610d5981610d53610d44600133906109ba565b91610d4e836109e7565b610a4e565b90610a2e565b7f0000000000000000000000000000000000000000000000000000000000000000919091611251565b565b610da5915060203d8111610dab575b610d9d818361072b565b810190610769565b5f610d2f565b503d610d93565b610787565b610dc0906106f5565b90565b90610dcc61064c565b5081610de8610de2610ddd5f610870565b6100ff565b916100ff565b14610eee57602090610e267f000000000000000000000000000000000000000000000000000000000000000033610e1e30610db7565b9084926112a3565b610e4e81610e48610e39600187906109ba565b91610e43836109e7565b610a5c565b90610a2e565b610e777f0000000000000000000000000000000000000000000000000000000000000000610701565b610e9a5f633ee5ef1f959395610ea5610e8e6100e2565b97889687958694610754565b845260048401610c8f565b03925af1908115610ee9575f91610ebb575b5090565b610edc915060203d8111610ee2575b610ed4818361072b565b810190610769565b5f610eb7565b503d610eca565b610787565b610ef66100e2565b63d92e233d60e01b815280610f0d6004820161039a565b0390fd5b610f1a906106f5565b90565b151590565b90610f4492610f3e929133610f3630610f11565b91929361133e565b15610f1d565b610f4a57565b611595565b610f5761091e565b610f70610f6a610f656115a0565b6100ff565b916100ff565b03610f7757565b610fa0610f826115a0565b610f8a6100e2565b91829163118cdaa760e01b83526004830161046f565b0390fd5b90610fb560018060a01b03916109f4565b9181191691161790565b90565b90610fd7610fd2610fde926109ae565b610fbf565b8254610fa4565b9055565b610feb5f610911565b610ff5825f610fc2565b906110296110237f8be0079c531659141344cd1fd0a4f28419497f9722a3daafe3b4186f6b6457e0936109ae565b916109ae565b916110326100e2565b8061103c8161039a565b0390a3565b61104a906106f5565b90565b611056906106f5565b90565b90565b61107061106b61107592611059565b6106d6565b61012e565b90565b61108361138861105c565b90565b905090565b6110965f8092611086565b0190565b6110a39061108b565b90565b906110b96110b26100e2565b928361072b565b565b67ffffffffffffffff81116110d9576110d560209161070d565b0190565b610717565b906110f06110eb836110bb565b6110a6565b918252565b606090565b3d5f146111155761110a3d6110de565b903d5f602084013e5b565b61111d6110f5565b90611113565b919091816111396111335f61094d565b9161012e565b11611144575b505050565b61114d816115f9565b5f14611207575061115d3061104d565b3161117061116a8361012e565b9161012e565b106111e4575f80916111846111b494611041565b9061118d611078565b91906111976100e2565b91826111a28161109a565b0393f16111ad6110fa565b5015610f1d565b6111c1575b5f808061113f565b6111c96100e2565b63b12d13eb60e01b8152806111e06004820161039a565b0390fd5b6111ec6100e2565b631e9acf1760e31b8152806112036004820161039a565b0390fd5b9161121561121b9391611041565b90611251565b6111b9565b63ffffffff1690565b63ffffffff60e01b1690565b61124961124461124e92611220565b610754565b611229565b90565b9061127692611270929161126863a9059cbb611235565b90919261164b565b15610f1d565b61127c57565b6112846100e2565b63fb7f507960e01b81528061129b6004820161039a565b0390fd5b5f90565b925f916064916020946112b96323b872dd611235565b926112c261129f565b5060405193845260048401526024830152604482015282855af180611316575b6112ed915015610f1d565b6112f357565b6112fb6100e2565b63f405907160e01b8152806113126004820161039a565b0390fd5b503d5f1461133257506112ed60015f5114601f3d11165b6112e2565b5f6112ed913b1161132d565b9190935f9493859461134e61129f565b5063d505accf60e01b936323f2ebc360e21b946302b67b5760e41b91639fd5a6cf60e01b936040519787938460641461153457846048146114c7578460e0146114a95750836101001461148b5750826060146113eb575050610160146113c457509180600492879486528386013701925af1905b565b9050610164945083526004830137826e22d473030f116ddee9f6b43ac78ba35af1906113c2565b909260209650604095945061016498925087526004870152602486015260148260508701376001601483013560e01c0365ffffffffffff166064860152601882013560e01c608486015260a48501526001601c82013560e01c0365ffffffffffff1660c485015261010060e4850152816101048501528280820161012486013701610144830137826e22d473030f116ddee9f6b43ac78ba35af1906113c2565b925050508794925061010496939150855260048501375af1906113c2565b93505050508794925060e496939150855260048501375af1906113c2565b5091935091508895506101049794935086526004860152602485015260206008600483013560e01c926001602882013594823560e01c60448a0152036064880152600160848801528360ff1c601b0160a48801520160c486013760011b60011c60e48401525af1906113c2565b92945050915088955060e497949350865260048601526024850152602060248183013560e01c926001604482013594848360448b01370360648801528360ff1c601b0160848801520160a486013760011b60011c60c48401525af1906113c2565b6040513d5f823e3d90fd5b6115a86108e9565b503390565b6115b6906106d9565b90565b6115c2906115ad565b90565b6115d66115d15f610870565b6115b9565b90565b6115f673eeeeeeeeeeeeeeeeeeeeeeeeeeeeeeeeeeeeeeee6115b9565b90565b61160161129f565b508061161c6116166116116115c5565b6103d2565b916103d2565b14908115611629575b5090565b905061164461163e6116396115d9565b6103d2565b916103d2565b145f611625565b93925f9160449160209461165d61129f565b506040519283526004830152602482015282865af1918261167c575b50565b9091503d5f14611699575060015f5114601f3d1116905b5f611679565b5f903b119061169356fea2646970667358221220e20b80fd514ba7a19bacbf14df2313845b2d831004e9472f7fac6d9b0e8e6cf664736f6c63430008170033","linkReferences":{}},"methodIdentifiers":{"ESCROW_DST_IMPLEMENTATION()":"ba551177","ESCROW_SRC_IMPLEMENTATION()":"7040f173","FEE_BANK()":"2ce26aeb","addressOfEscrowDst((bytes32,bytes32,uint256,uint256,uint256,uint256,uint256,uint256))":"be58e91c","addressOfEscrowSrc((bytes32,bytes32,uint256,uint256,uint256,uint256,uint256,uint256))":"fb6bd47e","availableCredit(address)":"5886216f","createDstEscrow((bytes32,bytes32,uint256,uint256,uint256,uint256,uint256,uint256),uint256)":"dea024e4","decreaseAvailableCredit(address,uint256)":"85eda2de","getMakingAmount((uint256,uint256,uint256,uint256,uint256,uint256,uint256,uint256),bytes,bytes32,address,uint256,uint256,bytes)":"1d9671c3","getTakingAmount((uint256,uint256,uint256,uint256,uint256,uint256,uint256,uint256),bytes,bytes32,address,uint256,uint256,bytes)":"d7ff8a80","increaseAvailableCredit(address,uint256)":"3ee5ef1f","lastValidated(bytes32)":"acf4ce5c","postInteraction((uint256,uint256,uint256,uint256,uint256,uint256,uint256,uint256),bytes,bytes32,address,uint256,uint256,uint256,bytes)":"462ebde2","preInteraction((uint256,uint256,uint256,uint256,uint256,uint256,uint256,uint256),bytes,bytes32,address,uint256,uint256,uint256,bytes)":"0986bdd5","takerInteraction((uint256,uint256,uint256,uint256,uint256,uint256,uint256,uint256),bytes,bytes32,address,uint256,uint256,uint256,bytes)":"adf38ba1"},"id":4}